:0400000007EF00F016
:100008006B8252ED11F05FEF13F08A0E00019E6FC4
:10001800000E9F6F76EF05F0250EB519D8B40AD0FB
:1000280086C0D9FF87C0DAFFB5C0DFFF864B872BB4
:1000380076EF05F0000EAF6F000EAE6F000EA36FE7
:10004800000EA26F88C0F6FF89C0F7FF000EF86E99
:100058000F0EF76403D00800F55005D0F6CFE1FF86
:10006800F7CFE2FFE750AFEC16F0D8A04BD0000E68
:100078000001AF6F000EAE6FAEC023F0AFC024F02A
:10008800000E266E0A0E256E30EC16F023C0AEF078
:1000980024C0AFF0D00E0001936FFF0E946F88C09C
:1000A800F6FF89C0F7FF000EF86E0F0EF76403D055
:1000B8000800F55005D0F6CFE1FFF7CFE2FFE75093
:1000C8000001956F966B93519527945196239551FE
:1000D800AE279651AF23884B892B88C0F6FF89C07D
:1000E800F7FF000EF86E0F0EF76403D00800F55006
:1000F80005D0F6CFE1FFF7CFE2FFE750AFEC16F0FF
:10010800D8B0BAD788C0F6FF89C0F7FF000EF86EDE
:100118000F0EF76403D00800F55005D0F6CFE1FFC5
:10012800F7CFE2FFE7502E0AD8A448D00001A38DEC
:10013800884B892B000EB46F000EB36F29D0B3C063
:1001480023F0B4C024F0000E266E0A0E256E30ECA3
:1001580016F088C0F6FF89C0F7FF000EF86E0F0E84
:10016800F76403D00800F55005D0F6CFE1FFF7CFCC
:10017800E2FFE7500001936F93512326000E2422DB
:10018800D00E2324B36FFF0E2420B46F884B892B25
:1001980088C0F6FF89C0F7FF000EF86E0F0EF764EF
:1001A80003D00800F55005D0F6CFE1FFF7CFE2FF06
:1001B800E750AFEC16F0D8A05AD0C1D7000E000116
:1001C800B46F000EB36FA38952D0A38578D0B35112
:1001D800B411D8B40AD0A051B35DA151B459D8B064
:1001E80004D0B3C0A0F0B4C0A1F0AE51A05DAF512F
:1001F800A159D8B005D0A051AE5FA151AF5B0DD0C9
:10020800000EAF6F000EAE6F08D086C0D9FF87C052
:10021800DAFF200EDF6E864B872BAE07D8A0AF071C
:10022800AE29F3E1AF29D8B40FD0EFD79CC0D9FFDE
:100238009DC0DAFF86C0E1FF87C0E2FFDFCFE7FF9E
:100248009C4B9D2B864B872BA007D8A0A107A029E4
:10025800EDE1A129D8B476EF05F0E8D7B50E9C6F8B
:10026800000E9D6F000EA16F010EA06FB0D70001A8
:100278008851936F8951946F884B892B93C0F6FFEF
:1002880094C0F7FF000EF86E0F0EF76403D0080055
:10029800F55005D0F6CFE1FFF7CFE2FFE7500001B8
:1002A800B56FB551000AD8B493EF05F0640AD8B415
:1002B80006D0020AD8B489D70F0AD8A4CFD7070E18
:1002C800A315D8B4FED2A3A904D0000EB46F060EAD
:1002D800B36F9EC0D9FF9FC0DAFFDECFB0F0DECF8C
:1002E800B1F0DDCFB2F0030E9E27000E9F23B2AF10
:1002F80011D0B0C015F0B1C016F0B2C017F068EC5C
:1003080016F015C0B0F016C0B1F017C0B2F0030E69
:100318000001A213000EAD6F000EAC6FB051B11109
:10032800B211D8B486D0820E936FFF0E946FB0C00E
:1003380095F0B1C096F0B2C097F0B3C098F0100E27
:1003480005D0D8909833973396339533E82EF9D75C
:1003580095519325AC6F000E9421AD6FAC07D8A0D2
:10036800AD07ACC023F0ADC024F0000E266E030E1E
:10037800256E30EC16F023C0ACF024C0ADF0ACC054
:100388001BF0ADC01CF0000E1E6E0A0E1D6EA4EC14
:1003980012F01BC0ACF01CC0ADF00001ADAF03D033
:1003A800AC07D8A0AD07AC51000829EC08F038C05C
:1003B800A4F039C0A5F03AC0A6F0A4C029F0A5C0A1
:1003C8002AF0A6C02BF0B0C02CF0B1C02DF0B2C0FE
:1003D8002EF0FFEC0FF029C0A4F02AC0A5F02BC026
:1003E800A6F0A4C015F0A5C016F0A6C017F0000E20
:1003F800186E800E196E3F0E1A6E5CEC12F0D8B0B3
:1004080005D00001AC07D8A0AD0713D0A4C015F0E3
:10041800A5C016F0A6C017F0000E186E200E196EB3
:10042800410E1A6E5CEC12F0D8A003D00001AC4B60
:10043800AD2B0001B4BF06D0B4511BE10D0EB35D66
:10044800D8B017D0B0C042F0B1C043F0B2C044F049
:10045800B3512DEC0AF038C045F039C046F03AC027
:1004680047F04FEC0CF042C0B0F043C0B1F044C0CC
:10047800B2F00001ADBF06D0AD5120E10A0EAC5D6F
:10048800D8B01CD0B051B111B211D8B456D0B0C048
:100498004EF0B1C04FF0B2C050F083EC0FF04E50A8
:1004A8004F1050105110D8A448D00001ADBF45D00E
:1004B800AD5104E1020EAC5DD8A03FD0A4C015F048
:1004C800A5C016F0A6C017F0700E186E890E196E2A
:1004D800400E1A6E5CEC12F0D8B003D00001F70E93
:1004E80002D00001F80EAC27FF0EAD23AC5129EC69
:1004F80008F038C0A4F039C0A5F03AC0A6F0B0C0E2
:1005080015F0B1C016F0B2C017F0A4C018F0A5C01D
:1005180019F0A6C01AF0D5EC0DF015C0A8F016C059
:10052800A9F017C0AAF018C0ABF0000E0001B06F18
:10053800000EB16F000EB26F33D0B0C04EF0B1C034
:100548004FF0B2C050F083EC0FF04EC0A8F04FC08F
:10055800A9F050C0AAF051C0ABF0B0C04EF0B1C085
:100568004FF0B2C050F0A8C01DF0A9C01EF0AAC03C
:100578001FF0ABC020F060EC14F01DC051F01EC09D
:1005880052F01FC053F054EC15F04EC0B0F04FC0FD
:10059800B1F050C0B2F0000E0001AD6F000EAC6FAC
:1005A800010EB56F0A0EB519D8B418D0B551040D9F
:1005B800D70EF324F66EFE0EF420F76E0900F55000
:1005C800A85D0900F550A9590900F550AA59090074
:1005D800F550AB59D8A002D0B52BE4D7B5C093F0ED
:1005E800946B93BF9407B3519327B4519423AC51A0
:1005F8009327AD5194239351AE5F9451AF5BB351A0
:10060800B411D8B403D0AE07D8A0AF07030EA21513
:10061800936F000EA315946F93519411D8B40CD016
:1006280008D086C0D9FF87C0DAFF200EDF6E864B60
:10063800872BAE07D8A0AF07AFBF05D0AF51F1E108
:10064800AE05D8B0EED7030EA215936F000EA31512
:10065800946F93519411D8B450D086C0D9FF87C0F5
:10066800DAFF2D0E47D0A8C015F0A9C016F0AAC011
:1006780017F0ABC018F0B551040DD70EF324F66E81
:10068800FE0EF420F76E0900F5CF19F00900F5CF3A
:100698001AF00900F5CF1BF00A00F5CF1CF0E6ECC4
:1006A80012F015C0A4F016C0A5F017C0A6F018C027
:1006B800A7F0A4C022F0A5C023F0A6C024F0A7C0CC
:1006C80025F00A0E266E000E276E000E286E000E0C
:1006D800296EFCEC13F022C0A4F023C0A5F024C0BE
:1006E800A6F025C0A7F00001A451300F86C0D9FF9D
:1006F80087C0DAFFDF6E864B872BB507B529D8B4DC
:100708000CD0B1D786C0D9FF87C0DAFF300EDF6EB4
:10071800864B872BAC07D8A0AD07ADBF05D0AD5130
:10072800F1E1AC05D8B0EED7B4BF09D0B45104E1BB
:10073800090EB35DD8A003D0080EB56F02D0B3C0C0
:10074800B5F0B551B35F000EB5BFFF0EB45BB55140
:10075800D8B408D086C0D9FF87C0DAFF2E0EDF6E66
:10076800864B872BB55129EC08F038C099F039C071
:100778009AF03AC09BF0B0C02CF0B1C02DF0B2C0D6
:100788002EF099C029F09AC02AF09BC02BF0FFECFC
:100798000FF029C04EF02AC04FF02BC050F083EC68
:1007A8000FF04EC0A8F04FC0A9F050C0AAF051C039
:1007B800ABF071D0A8C015F0A9C016F0AAC017F008
:1007C800ABC018F00001B551040DD70EF324F66E36
:1007D800FE0EF420F76E0900F5CF19F00900F5CFE9
:1007E8001AF00900F5CF1BF00A00F5CF1CF0E6EC73
:1007F80012F015C0A4F016C0A5F017C0A6F018C0D6
:10080800A7F0A4C022F0A5C023F0A6C024F0A7C07A
:1008180025F00A0E266E000E276E000E286E000EBA
:10082800296EFCEC13F022C0A4F023C0A5F024C06C
:10083800A6F025C0A7F00001A451300F86C0D9FF4B
:1008480087C0DAFFDF6E864B872BA8C022F0A9C0CD
:1008580023F0AAC024F0ABC025F0B551040DD70E83
:10086800F324F66EFE0EF420F76E0900F5CF26F09D
:100878000900F5CF27F00900F5CF28F00A00F5CFD9
:1008880029F0FCEC13F022C0A8F023C0A9F024C082
:10089800AAF025C0ABF00001B507B529D8B40CD033
:1008A80089D786C0D9FF87C0DAFF300EDF6E864B46
:1008B800872BB307D8A0B407B351B411D8B412D159
:1008C800F0D79EC0D9FF9FC0DAFFDECFA8F0DDCFFA
:1008D800A9F0000EA9BFFF0EAA6FAB6F020E9E27EC
:1008E800000E9F23ABAF0AD0030EA213AB1FAA1FA3
:1008F800A91FA86D000EA923AA23AB23B351B411D5
:10090800D8A408D0A851A911AA11AB11D8A402D013
:10091800B34BB42B010EB56F0A0EB519D8B418D065
:10092800B551040DD70EF324F66EFE0EF420F76EC3
:100938000900F550A85D0900F550A9590900F550BE
:10094800AA590900F550AB59D8A002D0B52BE4D765
:10095800800EB5BF7F0E936FB351B55DB451800A59
:100968009359D8B003D0B3C0B5F010D0B451800AB1
:10097800936FB551B35D800EB5BF7F0E9359D8B054
:1009880005D0B551B36FB46BB3BFB407AE51AF1157
:10099800D8B40DD0030EA215936F000EA315946F53
:1009A80093519411D8B403D0AE07D8A0AF07A3AD24
:1009B80013D0AE51B35DB451800A936FAF51800A22
:1009C8009359D8B005D0B351AE5FB451AF5B04D0E2
:1009D800000EAF6F000EAE6F800EB5BF7F0E936F27
:1009E800AE51B55DAF51800A9359D8B007D0B55113
:1009F800AE5F000EB5BFFF0EAF5B04D0000EAF6F49
:100A0800000EAE6FAE51AF11D8B40FD086C0D9FF6B
:100A180087C0DAFF200EDF6E864B872BAE07D8A083
:100A2800AF07AE51AF11D8A4F1D7030EA215936F3B
:100A3800000EA315946F93519411D8B44BD086C06F
:100A4800D9FF87C0DAFF2D0EDF6E42D0B3C093F016
:100A5800B4C094F0D89093379437D890933794379C
:100A6800D70E9325F66EFE0E9421F76E0900F5CF8A
:100A780019F00900F5CF1AF00900F5CF1BF00A00AC
:100A8800F5CF1CF0A8C015F0A9C016F0AAC017F041
:100A9800ABC018F0E6EC12F015C022F016C023F037
:100AA80017C024F018C025F00A0E266E000E276E17
:100AB800000E286E000E296EFCEC13F02250300F49
:100AC8000001B56F86C0D9FF87C0DAFFB5C0DFFF68
:100AD800864B872BB307D8A0B407B329B7E1B4294D
:100AE800D8A4B4D78851936F8951946F884B892BB8
:100AF80093C0F6FF94C0F7FF000EF86E0F0EF76470
:100B080003D00800F55005D0F6CFE1FFF7CFE2FF9C
:100B1800E7500001B56FB551D8A410EF00F086C0BA
:100B2800D9FF87C0DAFF000EDF6E1200000E010148
:100B3800B26F000EB36F000ECB6F000EC76F000EC2
:100B4800C96F94EC15F00C0EB9EC14F01AEC16F011
:100B58009480CBEC16F00009D8B44DD215EC17F000
:100B68000101CB6F3C0ECB19D8A445D2CBEC16F0C3
:100B78000009D8B4FBD715EC17F00101CB6F520E62
:100B8800CB19D8B404D0720ECB19D8A48ED1CBEC23
:100B980016F00009D8B4FBD715EC17F00101CB6F9C
:100BA800740ECB19D8A42BD0CBEC16F00009D8B40E
:100BB800FBD715EC17F00101CB6F3E0ECB19D8A46B
:100BC8001AD2FA0E166EFF0E176E8EEC14F0320E55
:100BD8000001866F010E876FDB0E886F000E896F2C
:100BE80009EC00F0320E166E010E176E8EEC14F042
:100BF800FA0E166EFF0E176E8EEC14F0AAD7440E7E
:100C08000101CB19D8A42BD0CBEC16F00009D8B42D
:100C1800FBD715EC17F00101CB6F3E0ECB19D8A40A
:100C2800EAD1FA0E166EFF0E176E8EEC14F0320E25
:100C38000001866F010E876FE50E886F000E896FC1
:100C480009EC00F0320E166E010E176E8EEC14F0E1
:100C5800FA0E166EFF0E176E8EEC14F07AD7410E50
:100C68000101CB19D8A45ED0CBEC16F00009D8B49A
:100C7800FBD715EC17F00101CB6F3E0ECB19D8A4AA
:100C8800BAD1FA0E166EFF0E176E8EEC14F0000E27
:100C98000101CA6F020ECA6501D01AD0CA51C9EC47
:100CA80013F047C0B4F148C0B5F149C0B6F101012D
:100CB800CA51030DBE0EF324D96E010EF420DA6E6C
:100CC800B4C1DEFFB5C1DEFFB6C1DEFFCA2BE2D775
:100CD800320E0001866F010E876F4D0E886FFF0E72
:100CE800896FBEC18AF0BFC18BF0C0C18CF0C1C191
:100CF8008DF0C2C18EF0C3C18FF0C4C190F0C5C1E0
:100D080091F0C6C192F009EC00F0320E166E010E99
:100D1800176E8EEC14F0FA0E166EFF0E176E8EEC30
:100D280014F017D7500E0101CB19D8A470D0CBEC12
:100D380016F00009D8B4FBD715EC17F00101CB6FFA
:100D48003E0ECB19D8A457D1FA0E166EFF0E176EA9
:100D58008EEC14F0000EB3EC15F015C0BAF116C005
:100D6800BBF1BAC115F0BBC116F0ECEC15F0000EE2
:100D78002C6EC80E2D6E420E2E6ED7C01DF0D8C038
:100D88001EF07AEC16F01DC029F01EC02AF01FC014
:100D98002BF0FFEC0FF029C038F02AC039F02BC037
:100DA8003AF0C00E3B6E7F0E3C6E440E3D6E79EC01
:100DB80010F038C0B7F139C0B8F13AC0B9F1320E05
:100DC8000001866F010E876FB90E886FFF0E896F5D
:100DD800D7C08AF0D8C08BF0B7C18CF0B8C18DF0FD
:100DE800B9C18EF009EC00F0320E166E010E176EC6
:100DF8008EEC14F0FD0E166EFF0E176E8EEC14F0CE
:100E0800FA0E166EFF0E176E8EEC14F0A2D6460E72
:100E18000101CB19D8A4EFD0CBEC16F00009D8B457
:100E2800FBD715EC17F00101CB6F3E0ECB19D8A4F8
:100E3800E2D0FA0E166EFF0E176E8EEC14F0D9C0C3
:100E4800BCF1DAC0BDF1320E0001866F010E876F6A
:100E5800A80E886FFF0E896FBCC129F0BDC12AF0AA
:100E6800D0EC15F029C038F02AC039F02BC03AF080
:100E7800000E3B6EE00E3C6E400E3D6E79EC10F0BD
:100E880038C08AF039C08BF03AC08CF009EC00F019
:100E9800320E166E010E176E8EEC14F0FA0E166EE8
:100EA800FF0E176E8EEC14F054D6570E0101CB19B5
:100EB800D8A4A1D0CBEC16F00009D8B4FBD715EC18
:100EC80017F00101C76F7CD0CBEC16F00009D8B43D
:100ED800FBD715EC17F00101C86FCBEC16F0000931
:100EE800D8B4FBD715EC17F00101C96FCBEC16F09D
:100EF8000009D8B4FBD715EC17F00101CB6F3E0EF3
:100F0800CB19D8A426D6CBEC16F0FA0E166EFF0E27
:100F1800176E8EEC14F00101C851D00F0A0DF35072
:100F2800C925D00F576EC751ECEC10F012D6CBEC98
:100F380016F00009D8B4FBD715EC17F00101C86FFB
:100F4800CBEC16F00009D8B4FBD715EC17F001016B
:100F5800C96FCBEC16F0CBEC16F00009D8B4FBD770
:100F680015EC17F00101CB6F3E0ECB19D8A4F1D5C3
:100F7800FA0E166EFF0E176E8EEC14F0D00E0101ED
:100F8800C825236E246AFF0E2422000E266E0A0E40
:100F9800256E30EC16F00101C951596E5A6A23507A
:100FA800592624505A22D00E5924CC6FFF0E5A20AD
:100FB800CD6FCCC157F0CDC158F0ADEC11F0C9D50B
:100FC8000101C7514D0AD8B47FD71D0AD8B4AFD78D
:100FD800340AD8B479D70C0AD8B476D7050AD8B465
:100FE80073D71E0AD8B470D7040AD8B46DD70E0ABE
:100FF800D8B46AD7AED5662A3B0E666420D0000EF8
:10100800666E652A3B0E65641AD0000E656E642A0A
:10101800170E646414D0000E646E622A1F0E626498
:101028000ED0010E626E612A0C0E616408D0010EAA
:10103800616E602A630E606402D0000E606E25EC5B
:101048000DF056EC0BF0040084D53E6E3EAE01D197
:101058003E6C3E50800A120FD8A091D0000E266E2A
:10106800030E256E000E1E6E0A0E1D6E000E186E03
:10107800640E176E3E50156E166A15BE160627ECDE
:1010880013F015C01BF016C01CF0A4EC12F0090EEA
:101098001B24236E000E1C20246E30EC16F0260E46
:1010A8002324F66EFF0E2420F76E0900F5CF2CF0EE
:1010B8000900F5CF2DF00A00F5CF2EF0000E1E6EB8
:1010C800640E1D6E3E501B6E1C6A1BBE1C06A4ECF3
:1010D80012F0120E1B24236E000E1C20246E000E2C
:1010E800266E030E256E30EC16F0260E2324F66EBF
:1010F800FF0E2420F76E0900F5CF29F00900F5CF7F
:101108002AF00A00F5CF2BF0FFEC0FF029C03BF0D6
:101118002AC03CF02BC03DF03BC029F03CC02AF06F
:101128003DC02BF0000E266E030E256E000E186EC5
:101138000A0E176E3E50156E166A15BE160627EC77
:1011480013F015C023F016C024F030EC16F0260E6C
:101158002324F66EFF0E2420F76E0900F5CF2CF03D
:101168000900F5CF2DF00A00F5CF2EF0FFEC0FF0B7
:1011780029C038F02AC039F02BC03AF012003E508E
:10118800800A750FD8A053D0000E1E6E0A0E1D6E71
:101198003E501B6E1C6A1BBE1C06A4EC12F0090E06
:1011A8001B24236E000E1C20246E000E266E030ED8
:1011B800256E30EC16F0260E2324F66EFF0E242042
:1011C800F76E0900F5CF29F00900F5CF2AF00A00DB
:1011D800F5CF2BF0000E266E030E256E000E186E4E
:1011E8000A0E176E3E50156E166A15BE160627ECC7
:1011F80013F015C023F016C024F030EC16F0260EBC
:101208002324F66EFF0E2420F76E0900F5CF2CF08C
:101218000900F5CF2DF00A00F5CF2EF0FFEC0FF006
:1012280029C038F02AC039F02BC03AF012003E50DD
:10123800030D260EF324F66EFF0EF420F76E090058
:10124800F5CF38F00900F5CF39F00A00F5CF3AF0BC
:1012580012003E50800A120FD8A091D0000E266EC0
:10126800030E256E000E1E6E0A0E1D6E000E186E01
:10127800640E176E3E50156E166A15BE160627ECDC
:1012880013F015C01BF016C01CF0A4EC12F0090EE8
:101298001B24236E000E1C20246E30EC16F0FF0E6B
:1012A8002324F66EFE0E2420F76E0900F5CF2CF0ED
:1012B8000900F5CF2DF00A00F5CF2EF0000E1E6EB6
:1012C800640E1D6E3E501B6E1C6A1BBE1C06A4ECF1
:1012D80012F0120E1B24236E000E1C20246E000E2A
:1012E800266E030E256E30EC16F0FF0E2324F66EE4
:1012F800FE0E2420F76E0900F5CF29F00900F5CF7E
:101308002AF00A00F5CF2BF0FFEC0FF029C03BF0D4
:101318002AC03CF02BC03DF03BC029F03CC02AF06D
:101328003DC02BF0000E266E030E256E000E186EC3
:101338000A0E176E3E50156E166A15BE160627EC75
:1013480013F015C023F016C024F030EC16F0FF0E91
:101358002324F66EFE0E2420F76E0900F5CF2CF03C
:101368000900F5CF2DF00A00F5CF2EF0FFEC0FF0B5
:1013780029C038F02AC039F02BC03AF012003E508C
:10138800800A750FD8A053D0000E1E6E0A0E1D6E6F
:101398003E501B6E1C6A1BBE1C06A4EC12F0090E04
:1013A8001B24236E000E1C20246E000E266E030ED6
:1013B800256E30EC16F0FF0E2324F66EFE0E242068
:1013C800F76E0900F5CF29F00900F5CF2AF00A00D9
:1013D800F5CF2BF0000E266E030E256E000E186E4C
:1013E8000A0E176E3E50156E166A15BE160627ECC5
:1013F80013F015C023F016C024F030EC16F0FF0EE1
:101408002324F66EFE0E2420F76E0900F5CF2CF08B
:101418000900F5CF2DF00A00F5CF2EF0FFEC0FF004
:1014280029C038F02AC039F02BC03AF012003E50DB
:10143800030DFF0EF324F66EFE0EF420F76E09007E
:10144800F5CF38F00900F5CF39F00A00F5CF3AF0BA
:101458001200416E6D0E41649FD0000E266E030E81
:10146800256E000E1E6E0A0E1D6E000E186E640E9E
:10147800176E41C015F0166A27EC13F015C01BF063
:1014880016C01CF0A4EC12F0090E1B24236E000EEB
:101498001C20246E30EC16F0260E2324F66EFF0E68
:1014A8002420F76E0900F5CF2CF00900F5CF2DF0B8
:1014B8000A00F5CF2EF0000E1E6E640E1D6E41C0A0
:1014C8001BF01C6AA4EC12F0120E1B24236E000EF3
:1014D8001C20246E000E266E030E256E30EC16F0CE
:1014E800260E2324F66EFF0E2420F76E0900F5CF92
:1014F80029F00900F5CF2AF00A00F5CF2BF0FFEC10
:101508000FF029C03EF02AC03FF02BC040F0000E7B
:10151800266E030E256E000E186E0A0E176E41C059
:1015280015F0166A27EC13F015C023F016C024F046
:1015380030EC16F0260E2324F66EFF0E2420F76EEC
:101548000900F5CF2CF00900F5CF2DF00A00F5CFF2
:101558002EF03EC029F03FC02AF040C02BF0FFEC2F
:101568000FF029C03BF02AC03CF02BC03DF03BC037
:1015780029F03CC02AF03DC02BF0000E2C6E000E66
:101588002D6E3F0E2E6EFFEC0FF029C038F02AC0EA
:1015980039F02BC03AF012000A0E416463D0000EF5
:1015A800266E030E256E000E186E0A0E176E41C0C9
:1015B80015F0166A27EC13F015C023F016C024F0B6
:1015C80030EC16F0260E2324F66EFF0E2420F76E5C
:1015D8000900F5CF2CF00900F5CF2DF00A00F5CF62
:1015E8002EF0000E1E6E0A0E1D6E41C01BF01C6A06
:1015F800A4EC12F0090E1B24236E000E1C20246E8E
:10160800000E266E030E256E30EC16F0260E2324EF
:10161800F66EFF0E2420F76E0900F5CF29F00900B9
:10162800F5CF2AF00A00F5CF2BF0FFEC0FF029C018
:101638003EF02AC03FF02BC040F03EC029F03FC02A
:101648002AF040C02BF0000E2C6E000E2D6E3F0EBF
:101658002E6EFFEC0FF029C038F02AC039F02BC0ED
:101668003AF012004150030D260EF324F66EFF0ED9
:10167800F420F76E0900F5CF29F00900F5CF2AF01C
:101688000A00F5CF2BF0000E2C6E000E2D6E3F0ECB
:101698002E6EFFEC0FF029C038F02AC039F02BC0AD
:1016A8003AF0120002EC0FF0010E1F6E010E33EC3F
:1016B80015F0E50E236E000E246E56EC16F0020EA1
:1016C8001F6E040E33EC15F0DB0E236E000E246E35
:1016D80056EC16F082BA03D0576A572A01D0576AD7
:1016E800573A574682505718DF0B5718826E030E29
:1016F800166EE80E156E43EC16F0000E0101316F00
:10170800020E316501D01AD03151C9EC13F047C02F
:1017180020F148C021F149C022F101013151030DE6
:10172800280EF324D96E010EF420DA6E20C1DEFFF4
:1017380021C1DEFF22C1DEFF312BE2D7030E1F6E6F
:10174800010E33EC15F0000E0001866F010E876F55
:10175800830E886FFF0E896F28C18AF029C18BF02C
:101768002AC18CF02BC18DF02CC18EF02DC18FF0C9
:101778002EC190F02FC191F030C192F009EC00F029
:10178800000E236E010E246E56EC16F0010E1F6E2D
:101798000A0E33EC15F0D9C026F1DAC027F1000E95
:1017A8000001866F010E876FD20E886FFF0E896F5A
:1017B80026C129F027C12AF0D0EC15F029C038F04D
:1017C8002AC039F02BC03AF0000E3B6EE00E3C6E9A
:1017D800400E3D6E79EC10F038C08AF039C08BF0BD
:1017E8003AC08CF009EC00F0000E236E010E246E56
:1017F80056EC16F0040E1F6E010E33EC15F0000EB9
:101808002C6EC80E2D6E420E2E6ED7C01DF0D8C09D
:101818001EF07AEC16F01DC029F01EC02AF01FC079
:101828002BF0FFEC0FF029C038F02AC039F02BC09C
:101838003AF0C00E3B6E7F0E3C6E440E3D6E79EC66
:1018480010F038C023F139C024F13AC025F1000E58
:101858000001866F010E876FC60E886FFF0E896FB5
:10186800D7C08AF0D8C08BF023C18CF024C18DF08A
:1018780025C18EF009EC00F0000E236E010E246ED7
:1018880056EC16F0040E1F6E0E0E33EC15F0250EF6
:10189800B9EC14F0120044C048F0496A4A6A43346B
:1018A800483601E3498048504D6E47C048F0496AC0
:1018B8004A6A4634483601E3498048504C6E4D50D8
:1018C800D8B40BD04C504D5CD8B00ED04D50000859
:1018D8004C24486E180E486407D045C042F046C0F4
:1018E80043F047C044F012004C50D8B40BD04D50D0
:1018F8004C5CD8B00ED04C5000084D24486E180EE1
:10190800486407D042C042F043C043F044C044F0AA
:101918001200060E4B6E44BE4B8E47BE4B8C438E58
:10192800FF0E4216FF0E4316000E4416468EFF0E9B
:101938004516FF0E4616000E47164C504D5CD8B0A3
:101948001BD0D8904536463647364C064D504C1875
:10195800D8B40DD04B064BC048F0070E4816D8B483
:1019680006D0EFD7D8904432433242324D2A4C50F9
:101978004D18D8B41FD0F6D74D504C5CD8B01AD0FB
:10198800D8904236433644364D064D504C18D8B49C
:101998000DD04B064BC048F0070E4816D8B406D0F9
:1019A800EFD7D8904732463245324C2A4C504D1822
:1019B800D8A4F7D74BAE0CD0FF0E421AFF0E431A2D
:1019C800FF0E441A010E4226000E4322000E442246
:1019D8004BAC0CD0FF0E451AFF0E461AFF0E471AE5
:1019E800010E4526000E4622000E4722000E4B6EC1
:1019F80042504526435046224450472247AE0ED017
:101A0800FF0E451AFF0E461AFF0E471A010E45260D
:101A1800000E4622000E4722010E4B6E45C015F0FF
:101A280046C016F047C017F04DC018F04BC019F06B
:101A380005EC12F015C042F016C043F017C044F090
:101A48001200EFEC16F0D00EE4EC14F0000EE4EC0B
:101A580014F066C015F0166A000E186E0A0E176E9E
:101A680027EC13F015C023F016C024F066C01BF055
:101A78001C6A000E1E6E0A0E1D6EA4EC12F01B38B6
:101A8800F00B2324E4EC14F065C015F0166A000E80
:101A9800186E0A0E176E27EC13F015C023F016C047
:101AA80024F065C01BF01C6A000E1E6E0A0E1D6E27
:101AB800A4EC12F01B38F00B2324E4EC14F064C0FF
:101AC80015F0166A000E186E0A0E176E27EC13F042
:101AD80015C023F016C024F064C01BF01C6A000E69
:101AE8001E6E0A0E1D6EA4EC12F01B38F00B232498
:101AF800E4EC14F06350E4EC14F062C015F0166ADC
:101B0800000E186E0A0E176E27EC13F015C023F09E
:101B180016C024F062C01BF01C6A000E1E6E0A0E6E
:101B28001D6EA4EC12F01B38F00B2324E4EC14F027
:101B380061C015F0166A000E186E0A0E176E27ECB3
:101B480013F015C023F016C024F061C01BF01C6A06
:101B5800000E1E6E0A0E1D6EA4EC12F01B38F00B60
:101B68002324E4EC14F060C015F0166A000E186E19
:101B78000A0E176E27EC13F015C023F016C024F0D8
:101B880060C01BF01C6A000E1E6E0A0E1D6EA4ECCF
:101B980012F01B38F00B2324E4EC14F0E7EC16F0F9
:101BA800120017C01BF01C6A1D6A16341B3601E3AD
:101BB8001C801B50236E2350D8A409D0000E156E2C
:101BC800000E166E000E176E000E186E12001AC068
:101BD8001BF01C6A1D6A19341B3601E31C801B505C
:101BE800226E2250D8A409D0000E156E000E166E73
:101BF800000E176E000E186E1200168EFF0E1516C8
:101C0800FF0E1616000E1716198EFF0E1816FF0E69
:101C18001916000E1A16000E1E6E000E1F6E000E0C
:101C2800206E000E216E7F0E235E2250980F235ED9
:101C3800180E226ED8901E361F36203621361850C0
:101C4800155C195016581A501758D8A007D01850B4
:101C5800155E1950165A1A50175A1E80D890153604
:101C680016361736222EE6D723AE16D02350800A12
:101C7800970FD8B009D0000E156E000E166E000E24
:101C8800176E000E186E1200D890213220321F32C3
:101C98001E32233EF9D715D0170E23640FD0000E3D
:101CA800156E000E166E000E176E000E186E1200DE
:101CB800D8901E361F362036213623062350D8A446
:101CC800F7D71EC015F01FC016F020C017F021C0AE
:101CD80018F0120017341834206E2050D8A409D0F8
:101CE800000E156E000E166E000E176E000E186EA2
:101CF80012001A341B341F6E1F50D8A409D0000ECE
:101D0800156E000E166E000E176E000E186E12007D
:101D1800178EFF0E1516FF0E1616FF0E1716000E5D
:101D280018161A8EFF0E1816FF0E1916FF0E1A1621
:101D3800000E1B16000E1B6E000E1C6E000E1D6E94
:101D4800000E1E6E7F0E205E1F50A00F205E200E1C
:101D58001F6ED8901B361C361D361E361850155C63
:101D6800195016581A5017581B501858D8A009D08F
:101D78001850155E1950165A1A50175A1B50185AEF
:101D88001B80D89015361636173618361F2EE1D711
:101D980020AE16D02050800A9F0FD8B009D0000E70
:101DA800156E000E166E000E176E000E186E1200DD
:101DB800D8901E321D321C321B32203EF9D715D066
:101DC8001F0E20640FD0000E156E000E166E000E4A
:101DD800176E000E186E1200D8901B361C361D3672
:101DE8001E3620062050D8A4F7D71BC015F01CC0FB
:101DF80016F01DC017F01EC018F01200EFEC16F018
:101E0800D00EE4EC14F0000EE4EC14F0EFEC16F055
:101E1800D10EE4EC14F0010E95EC13F07F0B1A6E62
:101E28003A0E0001E06F1A50FFEC16F00001E16F66
:101E38001A500BEC17F00001E26F000EE36F010E71
:101E480095EC13F07F0B1A6E3A0E0001DD6F1A50F5
:101E5800FFEC16F00001DE6F1A500BEC17F00001D2
:101E6800DF6F010E95EC13F03F0B1A6E1A50FFEC62
:101E780016F00001DB6F1A500BEC17F00001DC6F55
:101E8800010E95EC13F01A6E1A50070B0001EE6F55
:101E9800010E95EC13F03F0B1A6E1A50FFEC16F07A
:101EA8000001E56F1A500BEC17F00001E66F010E08
:101EB80095EC13F01F0B1A6E2F0E0001E76F1A50E6
:101EC800FFEC16F00001E86F1A500BEC17F0000158
:101ED800E96F000E95EC13F01A6E2F0E0001EA6FF1
:101EE8001A50FFEC16F00001EB6F1A500BEC17F0CC
:101EF8000001EC6F000EED6FE7EC16F0120050C019
:101F080052F0536A546A4F34523601E353805250A8
:101F18000001856F8551D8A409D0000E4E6E000EC1
:101F28004F6E000E506E000E516E1200170E526E5C
:101F38004EC053F04FC054F050C055F05228566E62
:101F480004D0D890553254325332562EFAD75350C3
:101F58000001806F4F8EFF0E4E16FF0E4F16000EBB
:101F680050164E50816F4F50826F5050836F846B64
:101F78008E0E855F85AF16D08551800A8F0FD8B039
:101F880009D0000E4E6E000E4F6E000E506E000E01
:101F9800516E1200D8908433833382338133853F66
:101FA800F9D715D0170E85650FD0000E4E6E000EAE
:101FB8004F6E000E506E000E516E1200D890813791
:101FC80082378337843785078551D8A4F7D780515E
:101FD800D8B408D0841F831F821F816D000E82230E
:101FE8008323842381C04EF082C04FF083C050F019
:101FF80084C051F012002BC02FF0306A316A2A34A5
:102008002F3601E330802F50326E3250D8A407D0DB
:10201800000E296E000E2A6E000E2B6E12002EC0C6
:102028002FF0306A316A2D342F3601E330802F507B
:10203800376E3750D8A407D0000E296E000E2A6ECE
:10204800000E2B6E120037507B0F32262BC037F054
:102058002E50371A800E37162A8E2D8EFF0E2C160C
:10206800FF0E2D16000E2E16000E336E000E346E67
:10207800000E356E070E366E29A006D02C5033267A
:102088002D5034222E503522D8902B322A32293224
:10209800D8902C362D362E36362EEED7090E366EC3
:1020A80029A006D02C5033262D5034222E5035220C
:1020B800D8902B322A322932D89035323432333202
:1020C800362EEED733C015F034C016F035C017F0F1
:1020D80032C018F037C019F005EC12F015C029F01D
:1020E80016C02AF017C02BF012003AC03EF03F6A23
:1020F800406A39343E3601E33F803E50456E4550D4
:10210800D8A407D0000E386E000E396E000E3A6E55
:1021180012003DC03EF03F6A406A3C343E3601E35F
:102128003F803E50466E4650D8A407D0000E386E09
:10213800000E396E000E3A6E1200000E426E000E4E
:10214800436E000E446E4650890F455E3AC046F015
:102158003D50461A800E4616398EFF0E3816FF0E71
:102168003916000E3A163C8EFF0E3B16FF0E3C1633
:10217800000E3D16180E416ED8904236433644364E
:102188003B50385C3C5039583D503A58D8A007D09D
:102198003B50385E3C50395A3D503A5A4280D890AC
:1021A800383639363A36412EE7D742C015F043C0A3
:1021B80016F044C017F045C018F046C019F005ECF9
:1021C80012F015C038F016C039F017C03AF01200F6
:1021D8000001D66F4BD03C0E5760120057C066F016
:1021E80012003C0E5760120057C065F01200180E1E
:1021F8005760120057C064F012005750D8B412004C
:10220800080E5760120057C063F012005750D8B438
:102218001200200E5760120057C062F0120057508B
:10222800D8B412000D0E5760120057C061F01200AA
:10223800640E5760120057C060F012000C0EB9EC23
:1022480014F0B60E0001866F000E876F970E886F28
:10225800FF0E896F09EC00F0B60EB9EC14F0030E0E
:10226800166EE80E156E43EC16F012000001D651FA
:102278004D0AD8B4D4D7290AD8B4C8D70C0AD8B4C8
:10228800B6D7050AD8B4ADD71E0AD8B4A4D7040A5D
:10229800D8B4B3D70E0AD8B4CBD7D0D70600FACF64
:1022A80003F0FBCF04F0E9CF05F0EACF06F0E1CF69
:1022B80007F0E2CF08F0D9CF09F0DACF0AF0F3CF70
:1022C8000BF0F4CF0CF0F6CF0DF0F7CF0EF0F8CFFF
:1022D8000FF0F5CF10F06BC011F06CC012F06DC0AC
:1022E80013F06EC014F0CF50016ECE500001D96FBC
:1022F80001C0DAF00B0ED76EDC0ED66E000ECF6E74
:10230800000ECE6EF29414C06EF013C06DF012C0C1
:102318006CF011C06BF010C0F5FF0FC0F8FF0EC0D5
:10232800F7FF0DC0F6FF0CC0F4FF0BC0F3FF0AC0A7
:10233800DAFF09C0D9FF08C0E2FF07C0E1FF06C005
:10234800EAFF05C0E9FF04C0FBFF03C0FAFF6B9278
:102358001100585055E1640E575CD8B01200C00EF9
:102368002C6E7F0E2D6E440E2E6E57C01DF058C079
:102378001EF07AEC16F01DC029F01EC02AF01FC00E
:102388002BF0FFEC0FF029C038F02AC039F02BC031
:102398003AF0000E3B6EC80E3C6E420E3D6E79EC74
:1023A80010F038C086F039C087F03AC088F0000EC7
:1023B800456E000E466E3F0E476E86C042F087C0DF
:1023C80043F088C044F04FEC0CF042C04EF043C0DC
:1023D8004FF044C050F083EC0FF04EC0D7F04FC020
:1023E800D8F0040E0001D85DD8A003D0030ED86F32
:1023F800D769D7C015F0D8C016F0ECEC15F012006C
:1024080012001850D8B405D0155016101710D8A4BB
:102418000CD0000E156E000E166E000E176E120010
:10242800182AD890173216321532000E15141A6E63
:10243800000E16141B6EFE0E17141C6E1A501B107D
:102448001C10D8B40CD0ECD7182A010E1526000E93
:102458001622000E1722D890173216321532000EA7
:1024680015141A6E000E16141B6EFF0E17141C6E30
:102478001A501B101C10D8B406D0E6D71806D890EE
:1024880015361636173616BE03D0020E1860F6D764
:1024980018A0169ED8901832185017121950D8A4A0
:1024A800178E15C015F016C016F017C017F01200D9
:1024B80017AE16D015C01BF016C01CF017C01DF0C3
:1024C8001B1E1C1E1D1E1B2A000E1C221D22000E78
:1024D8001B24156E000E1C20166E800E1D20176E14
:1024E8001AAE16D018C01BF019C01CF01AC01DF087
:1024F8001B1E1C1E1D1E1B2A000E1C221D22000E48
:102508001B24186E000E1C20196E800E1D201A6EDA
:10251800000E151A000E161A800E171A000E181A39
:10252800000E191A800E1A1A1850155C19501658F0
:102538001A501758D8B002D0D8901200D88012007C
:10254800000E206E1EAE06D01D6C1E1ED8B01E2AB0
:10255800010E206E1CAE06D01B6C1C1ED8B01C2AA7
:10256800010E201A000E226E000E216E1D501E1044
:10257800D8B41CD0010E1F6E04D0D8901D361E365C
:102588001F2A1EAEFAD7D890213622361D501B5C62
:102598001E501C58D8A005D01D501B5E1E501C5A3A
:1025A8002180D8901E321D321F2EEDD72050D8B46E
:1025B80004D0216C221ED8B0222A21C01BF022C0D0
:1025C8001CF01200000E1D6E000E1E6E000E1F6E17
:1025D800000E206E19501A101B101C10D8B42AD0E7
:1025E800010E216E06D0D89019361A361B361C36C5
:1025F800212A1CAEF8D7D8901D361E361F36203635
:102608001950155C1A5016581B5017581C5018585A
:10261800D8A009D01950155E1A50165A1B50175ACF
:102628001C50185A1D80D8901C321B321A3219328D
:10263800212EE1D71DC015F01EC016F01FC017F0DF
:1026480020C018F01200000E1A6E16AE06D0156CD7
:10265800161ED8B0162A010E1A6E18AE04D0176CC2
:10266800181ED8B0182A17501810D8B418D0010E50
:10267800196E04D0D89017361836192A18AEFAD71A
:102688001750155C18501658D8A004D01750155E6E
:102698001850165AD89018321732192EF1D71A50E6
:1026A800D8B404D0156C161ED8B0162A15C015F06B
:1026B80016C016F01200AE0EF66E2D0EF76E000E56
:1026C800F86E00EEEFF010EE10F00900F5CFEEFF17
:1026D800E550E150FAE13A0EF66E2E0EF76E000E56
:1026E800F86E00EE67F010EE04F00900F5CFEEFF8B
:1026F800E550E150FAE10101CD6BCC6B00EED7F06B
:10270800180EEE6AE806FDE100EE5BF00C0EEE6ACC
:10271800E806FDE16B906B92000EF86E00019AEFEF
:1027280005F0176E000E186E829682889488000E47
:10273800196E18D0828610EC17F019500008156E23
:10274800070E152682A803D0166A162A01D0166A23
:10275800152A02D0D8901636152EFCD71650181206
:102768008296192A070E1964E5D794980400175021
:10277800D8B402D0829801D0828810EC17F08286F3
:1027880010EC17F08296185012004D6E4D50B3ECB5
:1027980015F015C04EF016C04FF04EC023F04FC0D4
:1027A80024F0000E266E050E256E30EC16F023C0C0
:1027B80029F024C02AF0D0EC15F029C038F02AC03E
:1027C80039F02BC03AF0C00E3B6E7F0E3C6E440EC3
:1027D8003D6E79EC10F038C04AF039C04BF03AC081
:1027E8004CF04AC047F04BC048F04CC049F01200CA
:1027F8002650271028102910D8B424D0010E2A6E8C
:1028080006D0D89026362736283629362A2A29AEE1
:10281800F8D72650225C275023582850245829508E
:102828002558D8A008D02650225E2750235A285071
:10283800245A2950255AD89029322832273226324C
:102848002A2EE7D722C022F023C023F024C024F088
:1028580025C025F0120084948492000E166E190E7D
:10286800156E43EC16F0010E1F6E030E1F6401D0A7
:102878000BD0030E9EEC16F0000E166E060E156EAB
:1028880043EC16F01F2AF1D7020E9EEC16F0000E4C
:102898001F6E030E1F6401D012001F50010D670E3A
:1028A800F324D96E000EF420DA6EDF501D6E000E90
:1028B8000FEC15F01F2AEDD78E0E256E06D0D89096
:1028C80020321F321E321D32252A000E1D14216EA1
:1028D800000E1E14226E000E1F14236EFF0E20140D
:1028E800246E2150221023102410D8A4E8D71DC02C
:1028F80015F01EC016F01FC017F025C018F0000E06
:10290800196E05EC12F015C01DF016C01EF017C0A8
:102918001FF0120015D016C0F6FF17C0F7FF000E03
:10292800F86E0F0EF76403D00800F55005D0F6CF07
:10293800E1FFF7CFE2FFE750DFEC16F0164A172A5F
:1029480016C0F6FF17C0F7FF000EF86E0F0EF764FB
:1029580003D00800F55005D0F6CFE1FFF7CFE2FF2E
:10296800E7500009D8B41200D6D7226E1ED0010E47
:102978001D6E000E0FEC15F0000E166E020E156E91
:1029880043EC16F01200020E1F6E010E33EC15F028
:102998001200100E1D6E000E0FEC15F0120022C072
:1029A8001DF0010E0FEC15F012002250080AD8B4E1
:1029B800F0D7020AD8B4E7D7060AD8B4D8D7EFD7E1
:1029C800176E8296000E186E070E186401D01BD081
:1029D80018500008156E070E152617C016F0152A90
:1029E80002D0D8901632152EFCD7010E1616163ABC
:1029F80082501618EF0B1618826E828610EC17F0AC
:102A08008296182AE1D7828810EC17F0828610EC9B
:102A180017F0829612001E6E1EB002D0849401D068
:102A28008484010E03EC16F0010E03EC16F0849278
:102A38001D380F0B9EEC16F01D500F0B9EEC16F078
:102A48001E50D8B405D0320E0400E82EFDD712006F
:102A5800000E166E020E156E43EC16F01200206E74
:102A680009D0800E05D0C00E03D0900E01D0D00E34
:102A7800216E0DD01F50010AD8B4F3D7030AD8B479
:102A8800F2D7010AD8B4F1D7070AD8B4F0D720048E
:102A98002126215080091D6E000E0FEC15F0120042
:102AA800515052105310D8B406D0000E511A000ECF
:102AB800521A800E531A4EC042F04FC043F050C015
:102AC80044F051C045F052C046F053C047F04FECB7
:102AD8000CF042C04EF043C04FF044C050F012001A
:102AE800EFEC16F0D00EE4EC14F0300EE4EC14F039
:102AF800440EE4EC14F0440EE4EC14F0120EE4EC92
:102B080014F0050EE4EC14F0130EE4EC14F0120EBD
:102B1800E4EC14F0230EE4EC14F0E7EC16F01200E9
:102B28000F0EC16E800E946E000E956E000E966E9E
:102B3800000E166E640E156E43EC16F0000E836ED2
:102B480019EC17F08CEC16F074EC15F0BEEC16F0DE
:102B58002FEC14F005EC17F0F7EC16F01200196ED4
:102B680019C017F017461746C2501718C30B171885
:102B7800C26EC282C2B2FED7C350C4CF17F0186A61
:102B880017C018F0176A17101A6E18501B6E1AC063
:102B980015F01BC016F01200000E2C6E2AAE06D0DF
:102BA800296C2A1ED8B02A2A010E2C6E29C015F0CD
:102BB8002AC016F0176A8E0E186E2CC019F005EC94
:102BC80012F015C029F016C02AF017C02BF0120019
:102BD80015C017F016C018F0D89018321732D890D0
:102BE800183217321750BE6E15C017F0030E17169D
:102BF800173ABD501718CF0B1718BD6E1200186E74
:102C0800000E1A6E000E196E03D00400194A1A2A13
:102C18001850156E166A1950155C1650800A176EF2
:102C28001A50800A1758D8A01200EFD7000ED56E98
:102C3800F294D580D592D5840B0ED76EDC0ED66E65
:102C4800CD82CD9ACD98000ECF6E000ECE6EF28E4C
:102C5800F28ACD80D58E120023502502F3CF27F0BB
:102C6800F4CF28F023502602F350282624502502BA
:102C7800F350282627C023F028C024F01200000EA5
:102C8800186E000E176E07D0C80E04000400E82E58
:102C9800FCD7174A182A1550175C16501858D8B080
:102CA8001200F2D709D023C0D9FF24C0DAFFDF50C1
:102CB800B9EC14F0234A242A23C0D9FF24C0DAFF30
:102CC800DF50D8B41200EFD7155016101710D8B42B
:102CD80006D0000E151A000E161A800E171A15C007
:102CE80015F016C016F017C017F012001DC015F029
:102CF8001EC016F0176A8E0E186E000E196E05ECBF
:102D080012F015C01DF016C01EF017C01FF01200FB
:102D1800B896000EAC6E190EAF6E000EB06EAC8495
:102D2800AC8A000EAB6EAB88AB8EAECF15F0AECFD3
:102D380015F012001C6E1CC01BF01B3A83501B18A8
:102D48000F0B1B18836E010E03EC16F0848204002F
:102D580000F084921200176E000E166E3A0E17607D
:102D680005D02F0E176402D0010E166E16C015F08E
:102D780015301200000EC26E0C0EC16E9368800EE4
:102D8800946E9268000E956E000E966E1200ABB4AB
:102D980002D0ABA202D0AB98AB889EAA02D0010E9B
:102DA8001200000E1200EAFFE6FFDEFFDAFFF6FF70
:102DB800E2FFF2FFEEFF156E01D00400ACA2FDD7D2
:102DC80015C0ADFF12008286829810EC17F0828839
:102DD80010EC17F012008286828810EC17F08298A7
:102DE80010EC17F01200CB68000ECA6E0C0EBD6E08
:102DF800CA8494941200156E15380F0B0F0B300F00
:102E08001200000EC26EC280890EC06E1200156ECE
:102E180015500F0B300F1200050E0400E82EFDD7D9
:102E28001200AECF15F01550120094988286828851
:062E38001200280C010647
:10FED60000010000000A00000064000000E80300C2
:10FEE6000010270000A086010040420F008096986F
:10FEF6000000E1F50500CA9A3B00803F0020410062
:10FF0600C842007A44401C4650C347247449971897
:10FF16004BBCBE4C6B6E4E03155079AD60F3497108
:10FF260000803FCDCC3DD7233C12833AB7D138C6AB
:10FF36002737388635C0D633CC2B32708930E7DB8D
:10FF46002EE53C1E42A20D414E303D2025332E3279
:10FF56006620766F6C742C20414E31203D2025336F
:10FF66002E326620766F6C742C20414E32203D2056
:10FF760025332E326620766F6C742C0D0025332EB9
:10FF860032662C2025332E32662C2025332E3266FF
:10FF960000494E56414C494420434F4D4D414E4435
:10FFA6000A0053706565643D25362E326620525030
:10FFB600530A00443D253564202C25362E32660032
:10FFC600443D2534642025362E326600533D2534C3
:10FFD6002E326600576564005475650046726900E6
:10FFE6004D6F6E0053756E0045727200536174005A
:0AFFF600546875000D0A0025000094
:020000040020DA
:08000000FFFFFFFFFFFFFFFF00
:020000040030CA
:0E000000FF011F1FFF8385FF0FC00FE00F40A1
:00000001FF
